{
  "contractName": "Counter",
  "abi": [
    {
      "inputs": [
        {
          "internalType": "uint256",
          "name": "x",
          "type": "uint256"
        }
      ],
      "stateMutability": "nonpayable",
      "type": "constructor"
    },
    {
      "inputs": [],
      "name": "count",
      "outputs": [
        {
          "internalType": "uint256",
          "name": "",
          "type": "uint256"
        }
      ],
      "stateMutability": "view",
      "type": "function"
    },
    {
      "inputs": [
        {
          "internalType": "uint256",
          "name": "i",
          "type": "uint256"
        }
      ],
      "name": "add",
      "outputs": [],
      "stateMutability": "nonpayable",
      "type": "function"
    },
    {
      "inputs": [],
      "name": "addOne",
      "outputs": [],
      "stateMutability": "nonpayable",
      "type": "function"
    }
  ],
  "bytecode": "0x608060405234801561001057600080fd5b506040516102af3803806102af83398181016040528101906100329190610054565b806000819055505061009e565b60008151905061004e81610087565b92915050565b60006020828403121561006657600080fd5b60006100748482850161003f565b91505092915050565b6000819050919050565b6100908161007d565b811461009b57600080fd5b50565b610202806100ad6000396000f3fe608060405234801561001057600080fd5b50600436106100415760003560e01c806306661abd146100465780631003e2d2146100645780636057d3ee14610080575b600080fd5b61004e61008a565b60405161005b919061010b565b60405180910390f35b61007e600480360381019061007991906100d3565b610090565b005b6100886100a7565b005b60005481565b8060005461009e9190610126565b60008190555050565b60016000546100b69190610126565b600081905550565b6000813590506100cd816101b5565b92915050565b6000602082840312156100e557600080fd5b60006100f3848285016100be565b91505092915050565b6101058161017c565b82525050565b600060208201905061012060008301846100fc565b92915050565b60006101318261017c565b915061013c8361017c565b9250827fffffffffffffffffffffffffffffffffffffffffffffffffffffffffffffffff0382111561017157610170610186565b5b828201905092915050565b6000819050919050565b7f4e487b7100000000000000000000000000000000000000000000000000000000600052601160045260246000fd5b6101be8161017c565b81146101c957600080fd5b5056fea2646970667358221220475161a8aab02bdb053262cc76f489a5d4da37c103547a90c67dbbe54315619c64736f6c63430008000033",
  "immutableReferences": {},
  "source": "// SPDX-License-Identifier: SEE LICENSE IN LICENSE\npragma solidity ^0.8.0;\n\ncontract Counter {\n    uint public count;\n    constructor(uint x) {\n        count = x;\n    }\n    function add(uint i) public{\n        count = count + i;\n    }\n    function addOne() public{\n        count = count + 1;\n    }\n}",
  "sourcePath": "/Users/j/iOS/code/learnblockchain/w1_1_truffle/contracts/Counter.sol",
  "compiler": {
    "name": "solc",
    "version": "0.8.0+commit.c7dfd78e.Emscripten.clang"
  },
  "schemaVersion": "3.4.16",
  "updatedAt": "2024-08-15T03:07:00.850Z",
  "devdoc": {
    "kind": "dev",
    "methods": {},
    "version": 1
  },
  "userdoc": {
    "kind": "user",
    "methods": {},
    "version": 1
  }
}