{
  "contractName": "Counter",
  "abi": [
    {
      "inputs": [
        {
          "internalType": "uint256",
          "name": "x",
          "type": "uint256"
        }
      ],
      "stateMutability": "nonpayable",
      "type": "constructor"
    },
    {
      "inputs": [],
      "name": "counter",
      "outputs": [
        {
          "internalType": "uint256",
          "name": "",
          "type": "uint256"
        }
      ],
      "stateMutability": "view",
      "type": "function",
      "constant": true
    },
    {
      "inputs": [
        {
          "internalType": "uint256",
          "name": "i",
          "type": "uint256"
        }
      ],
      "name": "add",
      "outputs": [],
      "stateMutability": "nonpayable",
      "type": "function"
    }
  ],
  "bytecode": "0x608060405234801561001057600080fd5b5060405161028338038061028383398181016040528101906100329190610054565b806000819055505061009e565b60008151905061004e81610087565b92915050565b60006020828403121561006657600080fd5b60006100748482850161003f565b91505092915050565b6000819050919050565b6100908161007d565b811461009b57600080fd5b50565b6101d6806100ad6000396000f3fe608060405234801561001057600080fd5b50600436106100365760003560e01c80631003e2d21461003b57806361bc221a14610057575b600080fd5b610055600480360381019061005091906100a7565b610075565b005b61005f61008c565b60405161006c91906100df565b60405180910390f35b8060005461008391906100fa565b60008190555050565b60005481565b6000813590506100a181610189565b92915050565b6000602082840312156100b957600080fd5b60006100c784828501610092565b91505092915050565b6100d981610150565b82525050565b60006020820190506100f460008301846100d0565b92915050565b600061010582610150565b915061011083610150565b9250827fffffffffffffffffffffffffffffffffffffffffffffffffffffffffffffffff038211156101455761014461015a565b5b828201905092915050565b6000819050919050565b7f4e487b7100000000000000000000000000000000000000000000000000000000600052601160045260246000fd5b61019281610150565b811461019d57600080fd5b5056fea2646970667358221220047bb5f26f878fbec0a690c670f849208d35e2c4140a59a71f424dcec9eb498364736f6c63430008000033",
  "immutableReferences": {},
  "source": "// SPDX-License-Identifier: SEE LICENSE IN LICENSE\npragma solidity ^0.8.0;\n\ncontract Counter {\n    uint public counter;\n    constructor(uint x) {\n        counter = x;\n    }\n    function add(uint i) public{\n        counter = counter + i;\n    }\n}",
  "sourcePath": "/Users/j/iOS/code/learnblockchain/w1_1_truffle/contracts/Counter.sol",
  "compiler": {
    "name": "solc",
    "version": "0.8.0+commit.c7dfd78e.Emscripten.clang"
  },
  "schemaVersion": "3.4.16",
  "updatedAt": "2024-08-14T08:12:03.643Z",
  "networkType": "ethereum",
  "devdoc": {
    "kind": "dev",
    "methods": {},
    "version": 1
  },
  "userdoc": {
    "kind": "user",
    "methods": {},
    "version": 1
  }
}